:020000040000FA
:10000000300300106901000071010000730100005D
:100010007501000077010000790100000000000078
:100020000000000000000000000000007B01000054
:100030007D010000000000007F0100008101000040
:1000400083010000830100008301000083010000A0
:100050008301000083010000830100008301000090
:100060008301000083010000830100008301000080
:100070008301000083010000830100008301000070
:100080008301000083010000830100008301000060
:1000900083010000A5070000830100008301000028
:1000A0008301000083010000830100008301000040
:1000B0008301000083010000830100008301000030
:1000C00083010000830100008301000000F002F8BA
:1000D00000F03AF80AA090E8000C82448344AAF1A8
:1000E0000107DA4501D100F02FF8AFF2090EBAE8A6
:1000F0000F0013F0010F18BFFB1A43F0010318475C
:100100005C0800007C080000103A24BF78C878C161
:10011000FAD8520724BF30C830C144BF04680C600D
:10012000704700000023002400250026103A28BF55
:1001300078C1FBD8520728BF30C148BF0B60704759
:100140001FB51FBD10B510BD00F0A6F81146FFF792
:10015000F7FF00F0F5F900F0C4F803B4FFF7F2FF81
:1001600003BC00F0F5FB0000094880470948004740
:10017000FEE7FEE7FEE7FEE7FEE7FEE7FEE7FEE757
:10018000FEE7FEE704480549034A054B70470000B7
:10019000A9040000CD000000300100103003001061
:1001A0003001001053EA020C00F069802DE9F04B99
:1001B0004FF00006002B1FBFB3FA83F503FA05F4D6
:1001C00024FA05F65E4012BF1643B2FA82F502FA2F
:1001D00005F4C5F120051EBF22FA05FC44EA0C0413
:1001E000203556EA044C4FEA144418BF641C4FF003
:1001F00000084FF00009904271EB030C39D300293D
:1002000019BFB1FA81F701FA07F6B0FA80F700FAE0
:1002100007F6C7F120071EBF20FA07FC46EA0C06C6
:100220002037B6FBF4FCA7EB0507103F07F01F0BC8
:10023000CBF120060CFA0BFB2CFA06F644BFB346B2
:100240000026202FA4BF5E464FF0000B5BEA060C91
:1002500008BF4FF0010B19EB0B09ABFB027C48EB1D
:100260000608C01B06FB02CC0BFB03CC71EB0C0198
:10027000C1E70B46024641464846BDE8F08B13B540
:100280004FF000004FF00001AFF30080BDE81C40CC
:100290007047704770477047754600F029F8AE46C2
:1002A00005006946534620F00700854618B020B582
:1002B000FFF768FFBDE820404FF000064FF0000751
:1002C0004FF000084FF0000B21F00701AC46ACE8FE
:1002D000C009ACE8C009ACE8C009ACE8C0098D466B
:1002E00070470446AFF300802046FFF736FF00005A
:1002F00000487047CC00001070470000FFFFFFFF70
:100300002DE9F04781480068C0F3016003287CD1E3
:100310007F48006810F0030006D0012833D002287F
:100320005FD003282ED100E000BF78480068C0F3FA
:10033000074000F101044FF002017648D0F8880030
:10034000C0F30E0000F10100A1FB0001724B4FF061
:10035000000CA0FB037901FB039100FB0C1122466A
:1003600063463846FFF71EFF05466C480068C0B27A
:1003700000F1010422464FF000032846FFF712FF68
:10038000674908605DE061480068C0F3074000F11C
:1003900001044FF002015F48D0F88800C0F30E005E
:1003A00000F10100A1FB00105E4A4FF0000CA1FB20
:1003B000027900FB029001FB0C012246634638469D
:1003C000FFF7F0FE054655480068C0B200F1010491
:1003D00022464FF000032846FFF7E4FE504908602C
:1003E0002FE04A480068C0F3074000F101044FF0D5
:1003F00002014848D0F88800C0F30E0000F1010067
:10040000A1FB00124FF4004000E01BE04FF000039E
:10041000A1FB007902FB009001FB03012246384654
:10042000FFF7C0FE05463D480068C0B200F1010478
:1004300022464FF000032846FFF7B4FE3849086013
:1004400000BF2FE03248006810F0030006D00128FA
:1004500010D0022819D0032823D100E000BF2F4874
:100460000068C0B200F101002B49B1FBF0F02C494B
:10047000086016E029480068C0B200F1010029496F
:10048000B1FBF0F0264908600BE024480068C0B2D8
:1004900000F101004FF40041B1FBF0F02049086089
:1004A00000BF00BFBDE8F08720201F490860194841
:1004B000D0F8A00110F0200F05D000BF1A48006846
:1004C00010F0400FFAD00320144908601748114972
:1004D000C1F8A8011648174908604FF001000C49FF
:1004E00008604FF00400A1F10401086012481349AC
:1004F00008604FF480700749C1F8C80108460068D9
:1005000020F4704040F480400860704788C00F407D
:100510000CC10F4000C00F4000093D0004C10F4056
:1005200000000010001BB700A0C10F4055515155ED
:1005300055545554ACC10F40DE872804C4C00F4049
:10054000FFF7DEFEFFF7B0FFEA48EB490860C003A3
:1005500008624013086480108861F020E749086051
:100560004FF015004FF0010101FA00F14FEA50126F
:100570004FF0E02303EB8202C2F8001100BF4FF0FE
:100580000000DF49086000BFFEE700214FF0402275
:1005900011679160022151610021D160114688618B
:1005A0002021D16301215160704700B540F22B102A
:1005B000FFF7EBFF59E06FF0F060CF4908610020D2
:1005C000D049086048E04FF0F060CB49C863401361
:1005D000C8654FF6FF71C848C183CB48C94909684F
:1005E00050F82100401CC94951F82000C849086052
:1005F00008460088C005C0498863C5480068800176
:100600008865C448BF49096830F8210081B2BA48FA
:1006100041830020C049086004E0BF480068401CD6
:10062000BD490860BC4800683228F6D34FF6FF7118
:10063000B14841830020B849086004E0B64800682A
:10064000401CB5490860B44800683228F6D3AD486C
:100650000068401CAB490860AA480068AF490968B7
:100660008842B0D30020A44908614FF04020C06BFD
:100670002128A0D100BD10B50446A148006838B9B2
:100680000A2094FBF0F100FB11409D49086010BD69
:100690000C2C4AD2DFE804F0060708090A0B0C0DFF
:1006A0000E0F1C3E00BF00BF00BF00BF00BF00BF59
:1006B00000BF00BF00BF944880689349C8600846E7
:1006C00040688860084600684860084604602CE07E
:1006D0008B480068401E8A4908608B48406800EBE0
:1006E00080008F49096801EB40008749896801EB68
:1006F0008101490001EB810100EB41008249096859
:1007000008448749086000207F49C86088604860C5
:1007100008600AE07C4840687B49086008468068B9
:1007200048600846C068886000BF00BF7C48006819
:100730007C49086000207C49086071480068E8B97D
:1007400017E0784800680A21B0FBF1F201FB1200C3
:100750006D49754A126841F82200724800680A2102
:10076000B0FBF1F06F4908606F480068401C6E49AB
:1007700008606C4800680028E3D188E7FFF715FFA0
:1007800000BF84E76FF0F0015B4A116111464869D0
:1007900000F0F00010B10121644A11600021564AB6
:1007A0001161704700B5F020614908604FF000000A
:1007B0006049086004E05F480068401C5D490860CB
:1007C0005C4800683228F6D35B4800685B490860E3
:1007D0000846006800287DD008460068102803D12C
:1007E00000205749086016E054480068202803D1CB
:1007F0000120534908600EE050480068402803D1AA
:1008000002204F49086006E04C480068802802D169
:1008100003204B49086000204A49086043E06FF418
:10082000706035490861C043C8614648006838B9FE
:10083000481537490860084600682F49886123E059
:1008400040480068012807D1400231490860084645
:1008500000682949886117E03A480068022807D1F2
:1008600040022B49086008460068234988610BE074
:1008700034480068032807D14FF400602449086019
:10088000084600681C498861002028490860FFF775
:1008900079FF26480068012800D108E0294800684F
:1008A000401C28490860274800680428B7D300BFC7
:1008B0000020114908614FF47060C8612248214945
:1008C000096800EB01101E49096850F821001F4912
:1008D000086000E00DE008460068FFF7CCFEF0205D
:1008E000134908606FF47060034908614FF4706049
:1008F000886100BD000F800700C009209080024081
:10090000AC00001098000010BC000010080000109F
:10091000B0000010740000109000001004000010DF
:10092000A8000010880000108C000010A400001027
:100930008C8002408400001084800240B8000010C7
:100940009C000010A0000010340000109400001063
:1009500001491820ABBEFEE7260002007C0900001A
:1009600000000010BC00000008010000380A000070
:10097000BC0000107402000024010000C0C62D005D
:1009800004000000000000003F000000060000001E
:100990005B0000004F000000660000006D000000DA
:1009A0007D000000070000007F0000006F000000D5
:1009B0000000000001000000020000000300000031
:1009C0000400000005000000060000000700000011
:1009D00008000000090000000B0000000A000000F1
:1009E0000A0000000A0000000A0000000A000000DF
:1009F00070080000F008000070090000F009000015
:100A000000000000000000000000000000000000E6
:100A100000000000000000000000000000000000D6
:100A200000000000000000000000000000000000C6
:080A30000000000000000000BE
:04000005000001698D
:00000001FF
